S0190000726F626F7465725F626C7565746F6F74682E73726563D9
S11300000C9456000C9468000C9468000C946800DE
S11300100C9468000C9468000C9468000C946800BC
S11300200C9468000C9468000C9468000C946800AC
S11300300C9468000C9468000C9468000C9468009C
S11300400C9468000C9468000C9468000C9468008C
S11300500C9468000C9468000C9468000C9468007C
S11300600C9468000C9409030C9468000C946800C8
S11300700C9468000C9468000C9468000C9468005C
S11300800C9468000C9468000C9468000C9468004C
S11300900C9468000C9468000C9468000C9468003C
S11300A00C9468000C9468000C94680011241FBE22
S11300B0CFEFDAE0DEBFCDBF21E0A0E0B1E001C0C8
S11300C01D92A130B207E1F70E94CD020C941903EE
S11300D00C940000E9ECF0E08081886180838081E9
S11300E08068808386E08093CA001092CD0087E602
S11300F08093CC000895823019F41092D00017C078
S1130100813059F482EA860F803218F46093D0006B
S11301100EC08DE78093D0000AC082EC860F813236
S113012018F46093D00003C08EE38093D000423073
S113013019F41092D2000895413059F482EC820FE0
S1130140813218F42093D20008958EE38093D20074
S1130150089582EA820F803218F42093D200089521
S11301608DE78093D2000895ECE7F0E090819F73CF
S1130170908390819F7D9083ABE7B0E09C919F7DBD
S11301809C939081977E9083811104C08081887FA5
S1130190808315C0813049F4ECE7F0E08081897FE9
S11301A080838081816080830AC0843041F4ECE7DD
S11301B0F0E080818460808380818C7F8083EAE7A3
S11301C0F0E080818768808380818064808380817F
S11301D086FDFDCF80917800909179000895CF93AA
S11301E0CAE080E00E94B400C150D9F7873323E00D
S11301F0920710F02C9A2D989C01295E32402E34DF
S1130200310510F42C9A2D9A893E9240D8F42C98FA
S11302102D9AF894E1ECF0E08081807F808385B1B1
S1130220807385B988E08BB990E285B1892785B957
S11302308FEF22E537E0815020403040E1F700C0E5
S11302400000F3CFCF910895CF93DF93E1E6F0E080
S113025080E88083108284B18F6084B98098269A64
S1130260579AA0ECB0E08C9181608C93E2ECF0E0C2
S1130270808181608083C3ECD0E088818D7F888316
S113028088818E7F88838C918F7E8C938C91806201
S11302908C9380818B7F8083808188608083EFEB67
S11302A0F0E083E0808388EE8093D10010828EE5B5
S11302B08093D0008093D200E1ECF0E080818860EC
S11302C0808380818B7F808380818D7F8083808108
S11302D0816080830E94EF000E94EF000E94EF0083
S11302E00E94EF000E94EF00DF91CF910895EFE3A9
S11302F0FFE13197F1F700C00000ECEBF0E09081F2
S1130300946A908390819923ECF78E7F8093BB004D
S113031084E88093BC00ECEBF0E080818823ECF768
S11303208AE08093BB0084E88093BC00ECEBF0E0AF
S113033080818823ECF7862F80628093BB0084E859
S11303408093BC00ECEBF0E080818823ECF76F7DB8
S11303506093BB0084E88093BC00ECEBF0E0808108
S11303608823ECF7ECEBF0E08081846980830895C6
S1130370CF93DF93D82F882314F0C0EF01C0C8EFC8
S1130380D6FF02C0C46001C0CB7FD5FF02C0C260EB
S113039001C0CD7FD4FF02C0C16001C0CE7F6C2FED
S11303A080E40E947701D3FF03C06C2F686002C011
S11303B06C2F677FD2FF02C0646001C06B7FD1FFE6
S11303C002C0626001C06D7FD0FF02C0616001C0E5
S11303D06E7F80E40E947701DF91CF910895CF93DF
S11303E0DF93D82F882314F0C0EE01C0C8EED6FFE7
S11303F002C0C46001C0CB7FD5FF02C0C26001C08F
S1130400CD7FD4FF02C0C16001C0CE7F6C2F80E4D9
S11304100E947701D3FF03C06C2F686002C06C2F69
S1130420677FD2FF02C0646001C06B7FD1FF02C04E
S1130430626001C06D7FD0FF02C0616001C06E7F49
S113044080E40E947701DF91CF9108952FEF80E738
S113045092E0215080409040E1F700C0000063EE3C
S113046080E40E9477018FE39CE90197F1F700C0D3
S1130470000063EE80E40E9477018FE193E001972E
S1130480F1F700C0000063EE80E40E94770162EEA1
S113049080E40E94770162EE80E40E94770168EEB6
S11304A080E40E94770160EE80E40E94770168EEA8
S11304B080E40E94770160EE80E40E94770161EE9F
S11304C080E40E94770160EE80E40E94770163EE8D
S11304D080E40E94770160EE80E40E9477016FEE71
S11304E080E40E9477010895ECEBF0E08081846A57
S11304F0808380818823ECF780E48093BB0084E8C8
S11305008093BC00ECEBF0E080818823ECF785E07D
S11305108093BB0084E88093BC00ECEBF0E0808126
S11305208823ECF78AE28093BB0084E88093BC00C4
S1130530ECEBF0E080818823ECF7ECEBF0E08081D9
S1130540846980838081846A808380818823ECF736
S113055080E48093BB0084E88093BC00ECEBF0E083
S113056080818823ECF71092BB0084E88093BC0060
S1130570ECEBF0E080818823ECF71092BB0084E878
S11305808093BC00ECEBF0E080818823ECF7ECEB8B
S1130590F0E0808184698083089585B7806885BF91
S11305A085B7806885BF3E9A469A8CE08093B800F0
S11305B00E9474020E9426020E9424010E946A0082
S11305C078942EE542E06EE582E00E947B0088E7A5
S11305D00E94B8012FEF83ED90E3215080409040BA
S11305E0E1F700C0000081E00E94EF01809100016A
S11305F08823F1F30E94B8012FEF83ED90E321509B
S113060080409040E1F700C0000081E00E94EF01CB
S1130610EDCF1F920F920FB60F9211248F938091FA
S1130620CE00809300018F910F900FBE0F901F900A
S10906301895F894FFCFB9
S9030000FC
