:100000000C9456000C9468000C9468000C946800E2
:100010000C9468000C9468000C9468000C946800C0
:100020000C9468000C9468000C9468000C946800B0
:100030000C9468000C9468000C9468000C946800A0
:100040000C9468000C9468000C9468000C94680090
:100050000C9468000C9468000C9468000C947C016B
:100060000C9468000C94C4020C9468000C94680012
:100070000C9468000C9468000C9468000C94680060
:100080000C9468000C9468000C9468000C94680050
:100090000C9468000C9468000C9468000C94680040
:1000A0000C9468000C9468000C94680011241FBE26
:1000B000CFEFDAE0DEBFCDBF21E0A0E0B1E001C0CC
:1000C0001D92A530B207E1F70E948E020C94EE0259
:1000D0000C94000086E08093CA001092CD0087E661
:1000E0008093CC00E9ECF0E080818068808380819F
:1000F000886180830895E8ECF0E0908195FFFDCF62
:100100008093CE0081E090E00895803419F46093EC
:10011000D0000895803811F46093D2000895ECE780
:10012000F0E090819F73908390819F7D9083ABE7F7
:10013000B0E09C919F7D9C939081977E90838111EC
:1001400004C08081887F808315C0813049F4ECE74A
:10015000F0E08081897F80838081816080830AC014
:10016000843041F4ECE7F0E080818460808380811A
:100170008C7F8083EAE7F0E08081876880838081DC
:1001800080648083808186FDFDCF8091780090918E
:1001900079000895CF93CAE080E00E948F00C1509B
:1001A000D9F7873323E0920710F02C9A2D989C0101
:1001B000295E32402E34310510F42C9A2D9A893E56
:1001C0009240D0F42C982D9AF894E1ECF0E08081E4
:1001D000807F808385B1807385B988E08BB995B1C4
:1001E00080E2892785B910920001109201011092D6
:1001F000020110920301FFCFCF910895CF93DF93B7
:10020000E1E6F0E080E88083108284B18F6084B9F9
:100210008098269A579AA0ECB0E08C9181608C93DC
:10022000E2ECF0E0808181608083C3ECD0E08881E3
:100230008D7F888388818E7F88838C918F7E8C933D
:100240008C9180628C9380818B7F80838081886099
:100250008083EFEBF0E083E0808388EE8093D10031
:1002600010828EE58093D0008093D200E1ECF0E024
:1002700080818860808380818B7F808380818D7F77
:10028000808380818160808314BC85B5826085BD58
:100290008EEF86BDEEE6F0E08081816080830E9473
:1002A000CA000E94CA000E94CA000E94CA000E949E
:1002B000CA00DF91CF9108959B01AC01109200011B
:1002C000109201011092020110920301A8EEB3E016
:1002D0000E94D4026115710581059105D9F7089531
:1002E000109200011092010110920201109203017C
:1002F00099230CF0FFCF08951F920F920FB60F9223
:1003000011248F939F93AF93BF938EEF86BD8091FF
:10031000000190910101A0910201B09103010196A9
:10032000A11DB11D8093000190930101A0930201D2
:10033000B0930301BF91AF919F918F910F900FBE2A
:100340000F901F901895CF93DF93D82FC62F62E0A0
:1003500070E080E090E00E945C01ECEBF0E08081D6
:10036000846A808380818823ECF7DE7FD093BB0092
:1003700084E88093BC00ECEBF0E080818823ECF70C
:100380008AE08093BB0084E88093BC00ECEBF0E053
:1003900080818823ECF78C2F80628093BB0084E8F7
:1003A0008093BC00ECEBF0E080818823ECF7CF7DFC
:1003B000C093BB0084E88093BC00ECEBF0E080814C
:1003C0008823ECF7ECEBF0E0808184698083DF9197
:1003D000CF91089562E370E080E090E00E945C01BC
:1003E00063EE80E40E94A3016AE070E080E090E0A8
:1003F0000E945C0163EE80E40E94A30168EC70E05F
:1004000080E090E00E94700163EE80E40E94A3010E
:1004100062EE80E40E94A30162EE80E40E94A301E8
:1004200068EE80E40E94A30160EE80E40E94A301D4
:1004300068EE80E40E94A30160EE80E40E94A301C4
:1004400061EE80E40E94A30160EE80E40E94A301BB
:1004500063EE80E40E94A30160EE80E40E94A301A9
:100460006FEE80E40E94A3010895ECEBF0E0808140
:10047000846A808380818823ECF780E48093BB00CA
:1004800084E88093BC00ECEBF0E080818823ECF7FB
:1004900085E08093BB0084E88093BC00ECEBF0E047
:1004A00080818823ECF78AE28093BB0084E8809304
:1004B000BC00ECEBF0E080818823ECF7ECEBF0E0A3
:1004C0008081846980838081846A8083808188239D
:1004D000ECF780E48093BB0084E88093BC00ECEBF5
:1004E000F0E080818823ECF71092BB0084E88093D1
:1004F000BC00ECEBF0E080818823ECF71092BB00AD
:1005000084E88093BC00ECEBF0E080818823ECF77A
:10051000ECEBF0E0808184698083089585B7806882
:1005200085BF85B7806885BF3E9A469A8CE08093E8
:10053000B8000E94FE000E946A0078940E94350272
:100540000E94EA0160E080E40E94850060E080E8AB
:100550000E948500809104010E947B00609104014B
:10056000862F807C803439F46F73625C0E94850032
:1005700010920401EFCF803869F76F73625C0E94BC
:10058000850010920401E6CF1F920F920FB60F92D2
:1005900011248F938091CE00809304018F910F904E
:1005A0000FBE0F901F9018950E94DF02A59F900D1F
:1005B000B49F900DA49F800D911D11240895A29FBA
:1005C000B001B39FC001A39F700D811D1124911D27
:1005D000B29F700D811D1124911D0895F894FFCFD5
:00000001FF
