S0190000726F626F7465725F626C7565746F6F74682E73726563D9
S11300000C9456000C9468000C9468000C946800DE
S11300100C9468000C9468000C9468000C946800BC
S11300200C9468000C9468000C9468000C946800AC
S11300300C9468000C9468000C9468000C9468009C
S11300400C9468000C9468000C9468000C9468008C
S11300500C9468000C9468000C9468000C9468007C
S11300600C9468000C9470020C9468000C94680062
S11300700C9468000C9468000C9468000C9468005C
S11300800C9468000C9468000C9468000C9468004C
S11300900C9468000C9468000C9468000C9468003C
S11300A00C9468000C9468000C94680011241FBE22
S11300B0CFEFDAE0DEBFCDBF21E0A0E0B1E001C0C8
S11300C01D92A130B207E1F70E943A020C9480021B
S11300D00C94000086E08093CA001092CD0087E65D
S11300E08093CC00E9ECF0E080818068808380819B
S11300F0886180830895E8ECF0E0908195FFFDCF5E
S11301008093CE0081E090E00895803419F46093E8
S1130110D0000895803811F46093D2000895ECE77C
S1130120F0E090819F73908390819F7D9083ABE7F3
S1130130B0E09C919F7D9C939081977E90838111E8
S113014004C08081887F808315C0813049F4ECE746
S1130150F0E08081897F80838081816080830AC010
S1130160843041F4ECE7F0E0808184608083808116
S11301708C7F8083EAE7F0E08081876880838081D8
S113018080648083808186FDFDCF8091780090918A
S113019079000895CF93CAE080E00E948F00C15097
S11301A0D9F7873323E0920710F02C9A2D989C01FD
S11301B0295E32402E34310510F42C9A2D9A893E52
S11301C09240D8F42C982D9AF894E1ECF0E08081D8
S11301D0807F808385B1807385B988E08BB990E294
S11301E085B1892785B98FEF22E537E0815020401A
S11301F03040E1F700C00000F3CFCF910895CF93D2
S1130200DF93E1E6F0E080E88083108284B18F60C0
S113021084B98098269A579AA0ECB0E08C918160BA
S11302208C93E2ECF0E0808181608083C3ECD0E0C9
S113023088818D7F888388818E7F88838C918F7E4F
S11302408C938C9180628C9380818B7F808380815E
S113025088608083EFEBF0E083E0808388EE809316
S1130260D10010828EE58093D0008093D200E1EC1F
S1130270F0E080818860808380818B7F80838081AF
S11302808D7F80838081816080830E94CA000E9468
S1130290CA000E94CA000E94CA000E94CA00DF91DC
S11302A0CF910895EFE3FFE13197F1F700C000002B
S11302B0ECEBF0E09081946A908390819923ECF7C1
S11302C08E7F8093BB0084E88093BC00ECEBF0E06D
S11302D080818823ECF78AE08093BB0084E88093D4
S11302E0BC00ECEBF0E080818823ECF7862F806281
S11302F08093BB0084E88093BC00ECEBF0E0808149
S11303008823ECF76F7D6093BB0084E88093BC0086
S1130310ECEBF0E080818823ECF7ECEBF0E08081FB
S11303208469808308952FEF80E792E02150804014
S11303309040E1F700C0000063EE80E40E945201A7
S11303408FE39CE90197F1F700C0000063EE80E4BD
S11303500E9452018FE193E00197F1F700C0000081
S113036063EE80E40E94520162EE80E40E94520136
S113037062EE80E40E94520168EE80E40E94520121
S113038060EE80E40E94520168EE80E40E94520113
S113039060EE80E40E94520161EE80E40E9452010A
S11303A060EE80E40E94520163EE80E40E945201F8
S11303B060EE80E40E9452016FEE80E40E945201DC
S11303C00895ECEBF0E08081846A80838081882347
S11303D0ECF780E48093BB0084E88093BC00ECEBF2
S11303E0F0E080818823ECF785E08093BB0084E80B
S11303F08093BC00ECEBF0E080818823ECF78AE288
S11304008093BB0084E88093BC00ECEBF0E0808137
S11304108823ECF7ECEBF0E08081846980838081B1
S1130420846A808380818823ECF780E48093BB0016
S113043084E88093BC00ECEBF0E080818823ECF747
S11304401092BB0084E88093BC00ECEBF0E0808168
S11304508823ECF71092BB0084E88093BC00ECEB9B
S1130460F0E080818823ECF7ECEBF0E08081846994
S11304708083089585B7806885BF85B7806885BF08
S11304803E9A469A8CE08093B8000E94FF000E9436
S11304906A000E94E1010E949301789460E080E484
S11304A00E94850060E080E80E9485008091000140
S11304B00E947B0060910001862F807C803439F497
S11304C06F73625C0E94850010920001EFCF803848
S11304D069F76F73625C0E94850010920001E6CF99
S11304E01F920F920FB60F9211248F938091CE001A
S11304F0809300018F910F900FBE0F901F9018955D
S1070500F894FFCF99
S9030000FC
