S0190000726F626F7465725F626C7565746F6F74682E73726563D9
S11300000C9456000C9468000C9468000C946800DE
S11300100C9468000C9468000C9468000C946800BC
S11300200C9468000C9468000C9468000C946800AC
S11300300C9468000C9468000C9468000C9468009C
S11300400C9468000C9468000C9468000C9468008C
S11300500C9468000C9468000C9468000C9468007C
S11300600C9468000C94FB020C9468000C946800D7
S11300700C9468000C9452010C9468000C94680071
S11300800C9468000C9468000C9468000C9468004C
S11300900C9468000C9468000C9468000C9468003C
S11300A00C9468000C9468000C94680011241FBE22
S11300B0CFEFDAE0DEBFCDBF21E0A0E0B1E001C0C8
S11300C01D92A430B207E1F70E94C5020C943303D9
S11300D00C94000086E08093CA001092CD0087E65D
S11300E08093CC00E9ECF0E080818068808380819B
S11300F0886180830895E8ECF0E0908195FFFDCF5E
S11301008093CE0081E090E00895803419F46093E8
S1130110D0000895803811F46093D2000895ECE77C
S1130120F0E090819F73908390819F7D9083ABE7F3
S1130130B0E09C919F7D9C939081977E90838111E8
S113014004C08081887F808315C0813049F4ECE746
S1130150F0E08081897F80838081816080830AC010
S1130160843041F4ECE7F0E0808184608083808116
S11301708C7F8083EAE7F0E08081876880838081D8
S113018080648083808186FDFDCF8091780090918A
S113019079000895CF93CAE080E00E948F00C15097
S11301A0D9F7873323E0920710F02C9A2D989C01FD
S11301B0295E32402E34310510F42C9A2D9A893E52
S11301C09240D8F42C982D9AF894E1ECF0E08081D8
S11301D0807F808385B1807385B988E08BB990E294
S11301E085B1892785B98FEF22E537E0815020401A
S11301F03040E1F700C00000F3CFCF910895CF93D2
S1130200DF93E1E6F0E080E88083108284B18F60C0
S113021084B98098269A579AA0ECB0E08C918160BA
S11302208C93E2ECF0E0808181608083C3ECD0E0C9
S113023088818D7F888388818E7F88838C918F7E4F
S11302408C938C9180628C9380818B7F808380815E
S113025088608083EFEBF0E083E0808388EE809316
S1130260D10010828EE58093D0008093D200E1EC1F
S1130270F0E080818860808380818B7F80838081AF
S11302808D7F80838081816080830E94CA000E9468
S1130290CA000E94CA000E94CA000E94CA00DF91DC
S11302A0CF9108951F920F920FB60F9211242F939E
S11302B03F935F936F937F938F939F93AF93BF937A
S11302C0EF93FF9380917900809301019091020153
S11302D080910101891720F480910101809302012A
S11302E080910301882309F43EC01092030185B173
S11302F08C6085B985B1836085B980910201833DA5
S113030000F18091020190E0885C910965E070E061
S11303100E940B03862F2C9861110FC022C02C9AC7
S113032021503109E1F720E63AEE2C9821503109A9
S1130330E1F79F5F891302C014C090E020E63AEE13
S1130340EECF809102018E3C38F080E69AEE2D9A31
S11303502C9A0197E1F705C080E69AEE2D9A019751
S1130360E9F72C982D9880910201883CB0F4E1ECD7
S1130370F0E08081807F808385B1807385B988E0D7
S11303808BB9F89480E69AEE2D9A0197E9F780E408
S11303909CE92D980197E9F7F5CFFF91EF91BF9173
S11303A0AF919F918F917F916F915F913F912F9129
S11303B00F900FBE0F901F901895EFE3FFE1319758
S11303C0F1F700C00000ECEBF0E09081946A9083B8
S11303D090819923ECF78E7F8093BB0084E880930F
S11303E0BC00ECEBF0E080818823ECF78AE080939A
S11303F0BB0084E88093BC00ECEBF0E080818823B0
S1130400ECF7862F80628093BB0084E88093BC0065
S1130410ECEBF0E080818823ECF76F7D6093BB0008
S113042084E88093BC00ECEBF0E080818823ECF757
S1130430ECEBF0E080818469808308952FEF80E7FE
S113044092E0215080409040E1F700C0000063EE4C
S113045080E40E94DD018FE39CE90197F1F700C07D
S1130460000063EE80E40E94DD018FE193E00197D8
S1130470F1F700C0000063EE80E40E94DD0162EE4B
S113048080E40E94DD0162EE80E40E94DD0168EEFA
S113049080E40E94DD0160EE80E40E94DD0168EEEC
S11304A080E40E94DD0160EE80E40E94DD0161EEE3
S11304B080E40E94DD0160EE80E40E94DD0163EED1
S11304C080E40E94DD0160EE80E40E94DD016FEEB5
S11304D080E40E94DD010895ECEBF0E08081846A01
S11304E0808380818823ECF780E48093BB0084E8D8
S11304F08093BC00ECEBF0E080818823ECF785E08E
S11305008093BB0084E88093BC00ECEBF0E0808136
S11305108823ECF78AE28093BB0084E88093BC00D4
S1130520ECEBF0E080818823ECF7ECEBF0E08081E9
S1130530846980838081846A808380818823ECF746
S113054080E48093BB0084E88093BC00ECEBF0E093
S113055080818823ECF71092BB0084E88093BC0070
S1130560ECEBF0E080818823ECF71092BB0084E888
S11305708093BC00ECEBF0E080818823ECF7ECEB9B
S1130580F0E0808184698083089585B7806885BFA1
S113059085B7806885BF3E9A469A8CE08093B80000
S11305A00E94FF000E946A000E946C020E941E02C8
S11305B0789460E080E40E94850060E080E80E9416
S11305C08500809100010E947B0060910001862FCC
S11305D0807C803439F46F73625C0E9485001092D1
S11305E00001EFCF803869F76F73625C0E94850069
S11305F010920001E6CF1F920F920FB60F921124B2
S11306008F938091CE00809300018F910F900FBE45
S11306100F901F90189597FB072E16F4009407D09F
S113062077FD09D00E941F0307FC05D03EF4909586
S113063081959F4F0895709561957F4F0895AA1BEA
S1130640BB1B51E107C0AA1FBB1FA617B70710F0B9
S1130650A61BB70B881F991F5A95A9F780959095EB
S10D0660BC01CD010895F894FFCF0A
S9030000FC
