:100000000C9456000C9468000C9468000C946800E2
:100010000C9468000C9468000C9468000C946800C0
:100020000C9468000C9468000C9468000C946800B0
:100030000C9468000C9468000C9468000C946800A0
:100040000C9468000C9468000C9468000C94680090
:100050000C9468000C9468000C9468000C94AF0138
:100060000C9468000C941D030C9468000C946800B8
:100070000C9468000C9468000C9468000C94680060
:100080000C9468000C9468000C9468000C94680050
:100090000C9468000C9468000C9468000C94680040
:1000A0000C9468000C9468000C94680011241FBE26
:1000B000CFEFDAE0DEBFCDBF21E0A0E0B1E001C0CC
:1000C0001D92A530B207E1F70E94F8020C94470395
:1000D0000C94000086E08093CA001092CD0087E661
:1000E0008093CC00E9ECF0E080818068808380819F
:1000F000886180830895E8ECF0E0908195FFFDCF62
:100100008093CE0081E090E00895823019F410923F
:10011000D00017C0813059F482EA860F803218F47B
:100120006093D0000EC08DE78093D0000AC082ECAF
:10013000860F813218F46093D00003C08EE3809361
:10014000D000423019F41092D2000895413059F491
:1001500082EC820F813218F42093D20008958EE34E
:100160008093D200089582EA820F803218F420939F
:10017000D20008958DE78093D2000895ECE7F0E077
:1001800090819F73908390819F7D9083ABE7B0E0D7
:100190009C919F7D9C939081977E9083811104C058
:1001A0008081887F808315C0813049F4ECE7F0E0DE
:1001B0008081897F80838081816080830AC08430D0
:1001C00041F4ECE7F0E080818460808380818C7F63
:1001D0008083EAE7F0E080818768808380818064A3
:1001E0008083808186FDFDCF809178009091790099
:1001F00008959B01AC01A8EEB3E00E942D03AB0172
:10020000BC018091000190910101A0910201B09187
:100210000301481759076A077B07D9F70895CF9359
:10022000CAE080E00E94BE00C150D9F7873323E0C6
:10023000920710F02C9A2D989C01295E32402E34A2
:10024000310510F42C9A2D9A893E9240C0F42C98D6
:100250002D9AF894E1ECF0E08081807F808385B175
:10026000807385B988E08BB9C0E285B18C2785B9E8
:1002700066E970E080E090E00E94F900F6CFCF914F
:100280000895CF93DF93E1E6F0E080E88083108269
:1002900084B18F6084B98098269A579AA0ECB0E018
:1002A0008C9181608C93E2ECF0E0808181608083AE
:1002B000C3ECD0E088818D7F888388818E7F88839E
:1002C0008C918F7E8C938C9180628C9380818B7FBC
:1002D0008083808188608083EFEBF0E083E080831F
:1002E00088EE8093D10010828EE58093D0008093B9
:1002F000D200E1ECF0E080818860808380818B7F98
:10030000808380818D7F808380818160808314BC25
:1003100085B5826085BD8EEF86BDEEE6F0E080811A
:10032000816080830E940F010E940F010E940F01D3
:100330000E940F010E940F01DF91CF910895AB0140
:10034000BC018091000190910101A0910201B09146
:10035000030184179507A607B707D9F708951F92D9
:100360000F920FB60F9211248F939F93AF93BF9369
:100370008EEF86BD8091000190910101A091020154
:10038000B09103010196A11DB11D809300019093CE
:100390000101A0930201B0930301BF91AF919F911E
:1003A0008F910F900FBE0F901F901895CF93DF93F2
:1003B000D82FC62F62E070E080E090E00E94F90044
:1003C000ECEBF0E08081846A808380818823ECF705
:1003D000DE7FD093BB0084E88093BC00ECEBF0E0C0
:1003E00080818823ECF78AE08093BB0084E88093C7
:1003F000BC00ECEBF0E080818823ECF78C2F80626E
:100400008093BB0084E88093BC00ECEBF0E080813B
:100410008823ECF7CF7DC093BB0084E88093BC00B9
:10042000ECEBF0E080818823ECF7ECEBF0E08081EE
:1004300084698083DF91CF910895CF93DF93D82F84
:10044000882314F0C0EF01C0C8EFD6FF02C0C4601B
:1004500001C0CB7FD5FF02C0C26001C0CD7FD4FFF9
:1004600002C0C16001C0CE7F6C2F80E40E94D60123
:10047000D3FF03C06C2F686002C06C2F677FD2FF70
:1004800002C0646001C06B7FD1FF02C0626001C026
:100490006D7FD0FF02C0616001C06E7F80E40E946A
:1004A000D601DF91CF91089562E370E080E090E0A3
:1004B0000E94F90063EE80E40E94D6016AE070E0D9
:1004C00080E090E00E94F90063EE80E40E94D60193
:1004D00068EC70E080E090E00E949F0163EE80E4B1
:1004E0000E94D60162EE80E40E94D60162EE80E4B2
:1004F0000E94D60168EE80E40E94D60160EE80E49E
:100500000E94D60168EE80E40E94D60160EE80E48D
:100510000E94D60161EE80E40E94D60160EE80E484
:100520000E94D60163EE80E40E94D60160EE80E472
:100530000E94D6016FEE80E40E94D6010895ECEB94
:10054000F0E08081846A808380818823ECF780E4F6
:100550008093BB0084E88093BC00ECEBF0E08081EA
:100560008823ECF785E08093BB0084E88093BC008F
:10057000ECEBF0E080818823ECF78AE28093BB000B
:1005800084E88093BC00ECEBF0E080818823ECF7FA
:10059000ECEBF0E08081846980838081846A8083D1
:1005A00080818823ECF780E48093BB0084E880930B
:1005B000BC00ECEBF0E080818823ECF71092BB00EC
:1005C00084E88093BC00ECEBF0E080818823ECF7BA
:1005D0001092BB0084E88093BC00ECEBF0E08081DB
:1005E0008823ECF7ECEBF0E0808184698083089548
:1005F00085B7806885BF85B7806885BF3E9A469A73
:100600008CE08093B8000E949F020E9454020E94D6
:1006100041010E946A0078942EE542E06EE582E096
:100620000E948500809104010E941D0280910401B6
:100630000E947B0010920401F5CF1F920F920FB61B
:100640000F9211248F938091CE00809304018F919B
:100650000F900FBE0F901F9018950E943803A59F12
:10066000900DB49F900DA49F800D911D11240895AD
:10067000A29FB001B39FC001A39F700D811D1124E3
:10068000911DB29F700D811D1124911D0895F89444
:02069000FFCF9A
:00000001FF
